:020000040800F2
:100000005871002099010008D319000863180008EE
:10001000D1190008A5030008E11D00080000000038
:10002000000000000000000000000000F7190008B8
:10003000A703000800000000F5190008F9190008DE
:10004000B3010008B3010008B3010008B3010008C0
:10005000B3010008B3010008B3010008B3010008B0
:10006000B3010008B3010008B3010008B3010008A0
:10007000B3010008B3010008B3010008B301000890
:10008000B3010008B3010008B3010008B301000880
:10009000B3010008B3010008B3010008B301000870
:1000A000B3010008B3010008B3010008B301000860
:1000B000B3010008B3010008B3010008B301000850
:1000C000B3010008B3010008B3010008B301000840
:1000D000B3010008B3010008B3010008B301000830
:1000E000B3010008B3010008B3010008B301000820
:1000F000B3010008B3010008B3010008B301000810
:10010000B3010008B3010008B3010008B3010008FF
:10011000B3010008B3010008B3010008B3010008EF
:10012000B3010008B3010008B3010008B3010008DF
:10013000B3010008F9030008B3010008B301000887
:10014000B3010008B3010008B3010008B3010008BF
:10015000B3010008B3010008B3010008B3010008AF
:10016000B3010008B3010008B3010008B30100089F
:10017000B3010008B3010008B3010008000000004B
:10018000B3010008DFF80CD000F082F80048004707
:10019000C93A0008587100200648804706480047C1
:1001A000FEE7FEE7FEE7FEE7FEE7FEE7FEE7FEE727
:1001B000FEE7FEE7891A00088501000840EA01030E
:1001C0009B0703D009E008C9121F08C0042AFAD20D
:1001D00003E011F8013B00F8013B521EF9D27047D1
:1001E000D2B201E000F8012B491EFBD27047002279
:1001F000F6E710B513460A4604461946FFF7F0FF26
:10020000204610BD421C10F8011B0029FBD1801AAA
:10021000704730B504460020034600E05B1C934263
:1002200003D2E05CCD5C401BF8D030BD2DE9F05F1F
:100230000546002092469B46884606468146402455
:100240001BE0284641464746224600F042F8534606
:100250005A46C01A914110D311461846224600F062
:1002600029F82D1A67EB01084F462246012000218C
:1002700000F020F817EB00094E41201EA4F1010404
:10028000DFDC484631462A464346BDE8F09F000081
:10029000064C074D06E0E06840F0010394E80700D3
:1002A00098471034AC42F6D3FFF770FFE0720008B5
:1002B00000730008202A04DB203A00FA02F1002033
:1002C00070479140C2F1200320FA03F31943904094
:1002D0007047202A04DB203A21FA02F000217047FF
:1002E00021FA02F3D040C2F120029140084319469E
:1002F000704770B58C1810F8015B15F0070301D139
:1003000010F8013B2A1106D110F8012B03E010F878
:10031000016B01F8016B5B1EF9D12B0705D400239B
:10032000521E0DD401F8013BFAE710F8013BCB1A3D
:10033000921C03E013F8015B01F8015B521EF9D532
:10034000A142D8D3002070BD0E4800B5016887B027
:1003500041F0100101600068694600F0100005904E
:100360000320009001200190029002200390064893
:1003700000F03EFD002000F009F8012000F006F832
:1003800007B000BD3038024000100240034900228F
:1003900031F81010024800F00BBE0000B8700008E1
:1003A00000100240FEE77047064908B509684FF49F
:1003B000FA52B1FBF2F14143009100BF491E009196
:1003C000FBD208BD1001002038B50446006800F5D6
:1003D0008050816941F480118161206800F580506E
:1003E000806900900120FFF7DFFF2068009900F589
:1003F0008050816138BD0000014800F0FBB9000069
:10040000346800202DE9F041044621B14FF400602A
:10041000E060C000A060E0690025002861D02846A7
:100420002368402619683A4A1140D4E902273A4322
:10043000024342F4007008431860206807680120F6
:1004400000F080F8206807602068466020684668F1
:10045000012000F077F820684660206885602068F9
:10046000C560216888694FF64172104040F08000F5
:10047000886120688669012000F064F82068866140
:100480002068C5612068C569012000F05BF820681C
:10049000C561226802F5805290691E4908401E49D4
:1004A00001439161206800F580508569012000F0CA
:1004B00049F8206800F5805085612068174900F5EB
:1004C00080500160206800F580500568012000F030
:1004D00039F8206800F580500560A069012803D034
:1004E00009E04FF480609BE7206800F58050C16907
:1004F0000B4A1143C16160690A4982880A64027823
:10050000D0F8010042EA00204864BDE8F081000014
:100510000F8120FF233FDEF8040020028020C1026B
:100520004000010000800240FEE7000004488068AF
:10053000007E042801D00020704701207047000091
:100540003401002031B500F039FD044600F036FDDD
:100550000099001B8842F9D338BD00002DE9F04115
:10056000054690F845000C46012875D0012685F80F
:100570004560022085F84400002C70D02A6811687C
:1005800041480140D4E900031843D4E902373B4312
:100590001843AB6818432369184363691843EB6831
:1005A0001843A3691843E3691843236A1843636A2D
:1005B0001843A36A1843084310602868076801209D
:1005C000FFF7C0FF28680760D4E90B010843D4E9AE
:1005D0000D1211430843E16B0843216C0843616C21
:1005E0000843A16C084329684860286847680120CF
:1005F000FFF7A8FF286847602968E06C88602968D1
:10060000206DC8602A6891694FF641700140D4E9B5
:1006100016031843B4F85470236E43EA0743184393
:10062000636E1843A36E1843084390612868876976
:100630000120FFF787FF28688761D4E91B01084381
:100640002968C8612868C4690120FFF77BFF286812
:10065000C46114E000E002E00220BDE8F0812968F6
:10066000086820F49042D5E902031843104308605B
:10067000286804680120FFF765FF2868046005F812
:10068000446F00206870E8E70F8120FF2DE9F043F8
:1006900090F845400025012C0DD04FF0010C80F85A
:1006A00045C0022480F8444044F2F4574FF000491A
:1006B0005E1E816217E00220BDE8F08301EB451465
:1006C000C4F80090C5EBC51808EB480802EB880891
:1006D000C4E90178B54204D204F12008C4F80C80C2
:1006E00000E0E1606D1C9D42E8D3026802F5805293
:1006F000D16080F844C0002180F845100846DBE74F
:100700002DE9F043914690F845200024012A0AD0B3
:10071000012680F84560022280F844204FF4801CB6
:100720005D1EC1621BE00220BDE8F08301EB4412B4
:10073000C2F800C0C4EBC41707EB470809EB8807F1
:100740009760C7691FB9176847F440071760AC4244
:1007500003D202F12007D76000E0D160641C9C4204
:10076000E4D3026802F58052116180F844600021F0
:1007700080F845100846D7E7704710B590F8451047
:10078000012913D0012280F84520022180F844106D
:10079000816A0C680023002C27DB0C68E40518D55F
:1007A000846B641C8463012C02D002E0022010BD23
:1007B000016341630C68C4F30D44241FC463046BDC
:1007C000A4680464C96840F8281F027743770020B2
:1007D00010BD0C68A40503D58263C0E90C1302E0C8
:1007E000846B641C8463C968816200F8442F437081
:1007F000012010BD70B50446006800F580504169C5
:100800004FF0000549064FF0010608D5204600F0DC
:10081000A9F92068402100F58050416109E0406954
:10082000C0070AD0204600F0A6FA206800F58050E4
:10083000466184F8446084F8455020684FF4803164
:1008400000F580504161206800F580504069000447
:100850000CD52046FFF790FF20684FF4004100F5CB
:100860008050416184F8446084F8455070BD0000B8
:100870002DE9FC474FF000050400A946009503D080
:1008800094F8440018B107E00120BDE8FC8784F823
:100890004550204600F0D6F86248016841F4804196
:1008A0000160006800F4804001905F48016821F415
:1008B000000101600168226A11430160206800F5AF
:1008C0008050016841F00101016000F077FB0646AD
:1008D0004FF4FA7709E000BF00F070FB801BB842CC
:1008E00003D9032004F8440F5FE0206800F580502E
:1008F0000068C007F0D12068006920F01C0600F0F5
:10090000AFFC4A494A4A0144914202D246F00806E5
:100910000EE04849484A0144914202D246F00C0692
:1009200006E0464908444649884201D346F0040699
:10093000206806614FF400420021204600F01CFAB6
:100940000126A8BBFF20FFF7FDFD606888B300F01B
:1009500035FB804641F288376A460121204600F087
:10096000BFF800F02BFBA0EB0800B84217D80098A6
:100970004007F1D54FF480520021204600F0FCF9E9
:10098000B0B900F01BFB80466A460121204600F00A
:10099000A7F800F013FBA0EB0800B8420AD9012128
:1009A0002046FFF72FFD04F8446F032065706CE7C5
:1009B00024E018E000988006E6D56A46102120461B
:1009C00000F08EF8D0B90098410703D54FF40061CC
:1009D000E16000E0E560800701D5A56019E04FF413
:1009E0008040A06015E0E068A168C00840EA5100BE
:1009F00082B20021204600F0BFF930B1012120462B
:100A0000FFF700FD84F844603EE740F6FF70FFF713
:100A100099FD49462046FFF7F5FC84F84460002024
:100A200033E70000443802400438014000D3CEFED2
:100A3000C0E1E40040F1E9FD40787D0100796CFC03
:100A4000005A6202F0B50068204987B088423BD165
:100A50001F480024016841F000710160016801F045
:100A600000710591016841F080610160016801F049
:100A700080610591016841F0006101600068022514
:100A800000F0006005903220CDE9000502AA03269F
:100A90000B2782E8D00069460E4800F0A9F98620AD
:100AA000CDE9000502AA694682E8D0000A4800F0B4
:100AB0009FF94FF46050CDE9000502AA694682E82B
:100AC000D000064800F094F907B0F0BD0080024065
:100AD000303802400008024000000240000402409A
:100AE0002DE9F047044690F84400914682281DD035
:100AF000822084F84400226810694FF6FF7500F0E8
:100B00001C03208A05EAC02018434FF4F86303EA67
:100B10008111014321F0020040F00105156100F050
:100B20004DFA064601274FF4803810E00220BDE858
:100B3000F08700BF00F042FA801B404505D304F85F
:100B4000447F002060700320F1E720680569E80712
:100B5000F0D12068406981B2C9F8001084F844706F
:100B60000020E4E77047F8B5044690F845000128F6
:100B700039D0012584F84550022084F844002068CB
:100B80000026016841F008010160206800680090BB
:100B90002846FFF709FC2168009808602068016872
:100BA00041F0040101602068006800900120FFF717
:100BB000FBFB2168009808602046FFF705FC2068D1
:100BC00000F58050816941F400518161206800F591
:100BD0008050816941F00201816184F8445084F8B9
:100BE00045600020F8BD0220F8BDF8B5044690F835
:100BF0004500012839D0012584F84550022084F8A9
:100C00004400206800F58050816921F40051816121
:100C1000206800F58050816921F00201816120681F
:100C20000026016821F0040101602068006800903E
:100C30000120FFF7B9FB2168009808602046FFF704
:100C4000C3FB2068016821F008010160206800688A
:100C500000900120FFF7A8FB21680098086084F845
:100C6000445084F845600020F8BD0220F8BDF0B57E
:100C700090F845200023012A11D0012780F8457003
:100C8000022280F84420002459B1C66A3268002A42
:100C90000ADA122100F8441F44700120F0BD02203E
:100CA000F0BD00F8447FF7E740F2F455A9420BD9B4
:100CB000B1FBF5FCB1FBF5F205FB1C1CBCF1000F10
:100CC00000D0521C012A43D1326842F040523260B7
:100CD000C26AC1F30C015160C16A0A6842F0004265
:100CE0000A60C16AC968C16234E0D6F800C02CF05D
:100CF000405CC6F800C033B9C66AD6F800C04CF0F4
:100D0000805CC6F800C0C66A7560561EB34214D136
:100D1000C66AD6F800C04CF0005CC6F800C0C2F14C
:100D20000106C6EBC61606EB4606D0F82CC001EB52
:100D30008606C6F30C06CCF80460C66AD6F800C076
:100D40004CF0004CC6F800C0C66A5B1CF668C66270
:100D50009342CAD3016801F580514A69520705D50B
:100D600004224A61016801F580514C6000F8447F1B
:100D700044700020F0BD70472DE9F041044690F822
:100D8000440042281ED0422084F844002368186999
:100D90004FF6FF7600F01C05208A06EAC0202843A3
:100DA0004FF4F86505EA8111014390B241F0030563
:100DB00058612068056100F001F9064601274FF4EB
:100DC000803810E00220BDE8F08100BF00F0F6F8A6
:100DD000801B404505D304F8447F00206070032049
:100DE000F1E720680569E807F0D184F84470EAE784
:100DF0002DE9F84FDFF888B100224FF001084FF0DD
:100E0000030A4FF00F090BF1040E00BF0B6808FA3C
:100E100002F42340A3426ED14D68022D01D0122D61
:100E20000ED1D50800EB850CDCF820505607F70EE4
:100E300009FA07F6B5430E69BE402E43CCF8206090
:100E4000066855000F790AFA05FC07F0030726EA41
:100E50000C06AF40374307604E68012E05D0022EC6
:100E600003D0112E01D0122E0ED18668CF6826EA4B
:100E70000C06AF40374387604668A6430C79C4F33D
:100E80000014944034434460C4688E6824EA0C041F
:100E9000AE402643C6604C68E4006AD5394C2568EC
:100EA00045F480452560246822F0030504F480445D
:100EB0000094354C2E19D6F8084895072F0F09FADB
:100EC00007F5AC43314DA84201D1002529E0304D52
:100ED000A84201D1012524E02E4DA84201D10225CE
:100EE0001FE02D4DA84201D103251AE02B4DA84249
:100EF00002D1042515E03CE0294DA84201D1052589
:100F00000FE0284DA84201D106250AE0264DA8424F
:100F100001D1072505E0254DA84201D1082500E0B3
:100F20000925BD402543C6F80858DBF800405D465A
:100F30004E689C43F60300D51C432C60DEF800404D
:100F400075464E689C43B60300D51C432C600C4D7F
:100F500008352C684E689C43F60200D51C432C6073
:100F6000074D0C352C684E689C43B60200D51C43D7
:100F70002C60521C102AFFF449AFBDE8F88F000026
:100F8000003C014044380240003001400000024073
:100F90000004024000080240000C02400010024021
:100FA0000014024000180240001C024000200240D1
:100FB0000AB1816170470904FBE70000014800683D
:100FC000704700000000002002480168491C0160D1
:100FD00070470000000000200B4810B5016841F484
:100FE00000710160016841F480610160016841F4B1
:100FF00080710160032000F075F8002000F006F811
:1010000000F018F8002010BD003C024010B5044666
:1010100007484FF47A710068B0FBF1F000F055FB1F
:1010200000222146501E00F03DF8002010BD0000B7
:101030001001002010B5032000F054F800221146E2
:101040006FF00B0000F02EF8002211466FF00A003E
:1010500000F028F8002211466FF0090000F022F895
:1010600000221146501F00F01DF800221146101FEB
:1010700000F018F800221146901E00F013F800222C
:10108000BDE810401146501E00F00CB800F01F02E1
:10109000012191404009800000F1E020C0F80011DA
:1010A00070470000F0B40E4B1B680C46C3F30223DC
:1010B000C3F10705042D00D90425191D072901D204
:1010C000002300E0DB1E012606FA05F1491E21403F
:1010D00099409E40761E16403143F0BC00F07ABC29
:1010E0000CED00E0064900F0070208684FF6FF0328
:1010F000184040EA0220034A10430860704700008D
:101100000CED00E00000FA052DE9F047DFF8409112
:1011100005460E46D9F8000000F00F01F0B28046F7
:10112000B14208D2014689F80010D9F8000000F059
:101130000F00B04262D12878464C800705D5206860
:10114000A96820F0F000084320602878C00747D045
:10115000404968680839012816D00968022816D065
:10116000890700294ADA216821F00301014321603F
:10117000FFF724FF6968074641F2883001290FD044
:101180000229824619D027E009688903E9E7890125
:10119000E7E700BFFFF712FFC11B514501D918E077
:1011A00082462068C0F381000128F3D118E000BF17
:1011B000FFF704FFC11B51450BD82068C0F3810025
:1011C0000228F5D10CE000BFFFF7F8FEC11B514526
:1011D00002D90320BDE8F087206810F00C0FF3D18E
:1011E000D9F80010484601F00F01B14208D980F843
:1011F0000080006800F00F00B04201D00120E9E754
:101200002878400705D52068E96820F4E0500843B5
:1012100020602878000706D52068296920F46040FE
:1012200040EAC100206000F051F82168F02292FAF3
:10123000A2F201F0F001B2FA82F2D140064A515C0A
:10124000C840064908600020FFF7E0FE0020C1E723
:10125000003C024008380240B46F00081001002032
:101260000148006870470000100100200848094943
:10127000006809684FF4E05292FAA2F201F4E051DA
:10128000B2FA82F2D140044A515CC8407047000073
:101290001001002008380240B46F000808480949CE
:1012A000006809684FF4604292FAA2F201F46041CA
:1012B000B2FA82F2D140044A515CC8407047000043
:1012C0001001002008380240B46F000830B51948FA
:1012D000006810F00C01184812D0184C04290ED0E8
:1012E00008290DD11349091F0A6802F03F030A6853
:1012F000550247F6C07204D5B4FBF3F003E0204674
:1013000030BDB0FBF3F00B680968134092FAA2F20B
:10131000B2FA82F2D34058434FF4403292FAA2F22A
:1013200001F44031B2FA82F2D140491C4900B0FBCD
:10133000F1F030BD083802400024F40040787D010F
:10134000F0B51F4C16460D461D4B00210222032707
:10135000283C0028186887B019D040F004001860B5
:10136000186800F00400059010020090CDE90121FA
:10137000CDE9037169461348FFF73AFD206845EA55
:10138000C60120F078400843206007B0F0BD40F06F
:1013900001001860186800F0010005904FF480709B
:1013A0000090CDE90121CDE9037169460648FFF7B8
:1013B0001FFD2068354320F0EC602843E4E700007F
:1013C0003038024000080240000002402DE9F84F8A
:1013D0000446DFF8CC820078A8F1040BC007ABF11B
:1013E000040537D0D8F800104046C1F38101012927
:1013F00008D00068C0F3810002280AD1DBF80000A1
:10140000400206D52868800324D56068002878D07B
:1014100020E0A3492079891F0870606868B1FFF750
:10142000CDFD064605E000BFFFF7C8FD801B642820
:1014300068D828688003F7D50CE0FFF7BFFD0646A3
:1014400005E000BFFFF7BAFD801B6428F0D82868CC
:101450008003F7D42078934E80074FF0010A4FF0B5
:10146000000742D5D8F80010404611F00C0F08D004
:101470000068C0F3810002280AD1DBF800004002B6
:1014800006D42868800714D5E068012839D110E017
:10149000E068D8B1C6F800A0FFF790FD814605E0EE
:1014A000FFF78CFDA0EB09000228C1D8286880074F
:1014B000F6D52868F82292FAA2F22169B2FA82F2ED
:1014C00020F0F8009140084328600EE03760FFF7F5
:1014D00075FD814606E000BFFFF770FDA0EB090037
:1014E00002280FD828688007F6D42078000728D56E
:1014F0006D486169A1B1C0F800A0FFF75FFD8146AA
:1015000008E0CAE079E000BFFFF758FDA0EB090052
:10151000022872D862486C3000688007F4D510E069
:101520000760FFF74BFD814606E000BFFFF746FD71
:10153000A0EB0900022860D859486C300068800789
:10154000F4D42078400749D555483830016841F037
:1015500080510160006800F080500090534801689D
:1015600041F480710160FFF729FD814606E000BF6C
:10157000FFF724FDA0EB090002283ED84B48006885
:10158000C005F5D5DFF81891207A09F1680989F8C6
:101590000000A06888B1FFF711FD009008E000BFCF
:1015A000FFF70CFD0099411A41F2883081426CD856
:1015B000D9F800008007F3D510E0FFF7FFFC00909A
:1015C00008E000BFFFF7FAFC0099411A41F28830A9
:1015D00081425AD8D9F800008007F3D4A069E0B35B
:1015E000D8F80010C1F38101022956D002283766CD
:1015F00004D0FFF7E3FC04464AE046E0FFF7DEFCD8
:10160000074604E0FFF7DAFCC01B64283DD82868D1
:101610008001F7D4D4E90701084347F6C07292FA73
:10162000A2F2616AB2FA82F29140A26A4FF0FF33ED
:1016300003EB52024FF4403393FAA3F3B3FA83F36C
:101640009A40114308434FF0706292FAA2F2E16AA5
:10165000B2FA82F29140084300E01CE0CBF80000AF
:10166000C6F860A0FFF7AAFC044604E0FFF7A6FC5A
:10167000001B642809D828688001F7D50BE000BF5B
:10168000FFF79CFC001B642802D90320BDE8F88FFB
:1016900028688001F4D40020F8E70120F6E7000074
:1016A0000838024000004742800E47420070004068
:1016B0004FF0E0210428086903D020F004000861FD
:1016C000704740F00400FAE7704710B5401EB0F1D3
:1016D000807F01D3012010BD4FF0E02460610F2115
:1016E000601700F077F90020A0610720206100203A
:1016F00010BD10B5FFF7E8FF10BD70B5040004D0B1
:1017000094F83900002510B106E0012070BD84F87E
:101710003850204600F022F8242084F83900206850
:10172000C16821F40051C160204600F0D1F9206861
:10173000016921F4904101612068416921F02A0189
:1017400041612068C16841F40051C160E563202017
:1017500084F8390084F83A00002070BD00B50068B4
:101760000E4987B0884217D10D48016841F0100139
:1017700001600068694600F0100005904FF4C060F9
:101780000090022001900120029003200390072086
:1017900004900448FFF72CFB07B000BD0010014087
:1017A00044380240000002402DE9F843044690F816
:1017B00039001F4616460D46202850D1A5B19EB1CE
:1017C00094F8380001284AD0012084F838004FF0FE
:1017D0000008C4F83C80212084F83900FFF7EEFBB4
:1017E000A6848146E68426E00120BDE8F883E08CEB
:1017F000401EE084A0684B46B0F5805F4FF00002C9
:101800004FF080012046009703D000F0B7FAE8B906
:101810000DE000F0B3FAC8B928882168C0F30800C9
:101820004860206908B16D1C05E0AD1C03E021682B
:1018300015F8010B4860E08C0028D8D14B460022F7
:1018400040212046009700F099FA08B10320CCE728
:10185000202084F8390084F838800020C5E7022071
:10186000C3E7FEE7184800B5026887B0002142F0E0
:1018700080020260026802F080020592026842F073
:1018800004020260026802F004020592026842F05B
:1018900001020260026802F001020592026842F051
:1018A00002020260006800F0020005904FF48070B0
:1018B00000900220CDE90101CDE90301694603480A
:1018C000FFF796FA07B000BD303802400000024032
:1018D000FEB5274CC023A822237062700120A0709F
:1018E000C821E170251DFF2129706970A9700027AA
:1018F0002E1DEF7033707270B070F07002F0C8F887
:101900002078D4F80110231F40EA0120A4F10C0133
:101910001A1F08602878D5F8011040EA0120A4F1C8
:10192000080108603078D6F8011040EA0120211F34
:101930000860104810490097CDE90110111F0F48A9
:1019400002F0D2FA0D4802F017FB0C4890F82F0075
:1019500040070A4802D502F051FB01E002F012FBF9
:1019600003B00749BDE8F040044802F03FBB000067
:101970002801002069290008FD290008BC68002012
:101980001D2B000810B5034801F04CF8BDE81040CD
:1019900002F098BDBC6800200C4810B50A490160EF
:1019A0004FF4E1314160002181600C22C160C0E947
:1019B00004128161C161FFF7A0FE002803D0BDE8D9
:1019C0001040FEF7B1BD10BD001001407C68002042
:1019D000FEE770470907090E002806DA00F00F003D
:1019E00000F1E02080F8141D704700F1E02080F83D
:1019F000001470477047704710B5FFF7E5FABDE86F
:101A00001040FFF776BE30B591B00120039002245C
:101A1000102004900094002506940820CDE907507A
:101A2000C820099004200A900B906846FFF7CEFC6E
:101A300000B1FEE70CA90F2081E831004FF4A0505F
:101A40000F904FF48050109003210CA8FFF75CFB1F
:101A500000B1FEE74FF080624FF4C0010020FFF7B5
:101A60006FFCFFF7FDFB4FF47A71B0FBF1F0FFF76D
:101A70002CFE0420FFF71CFE00221146501EFFF72B
:101A800011FB11B030BD00000D48016841F00101AB
:101A900001600B4A0021083211600268094B1A40AC
:101AA0000260031D084A1A60026822F48022026064
:101AB00003480C3001600549580608607047000073
:101AC00000380240FFFFF6FE1030002408ED00E071
:101AD0002DE9F04104460068016921F44052E168B3
:101AE000114301612168C86849F20C62904323697F
:101AF000A268E5691A4363692B431A430243CA602B
:101B00002168486920F44072A06910434861E16986
:101B10006425B1F5004F9748974A21684FF0320885
:101B20003FD0914201D081427CD1FFF7B7FB00EB5F
:101B3000C00101EB001061688900B0FBF1F6FFF70E
:101B4000ADFB00EBC00101EB001061688900B0FB48
:101B5000F1F0B0FBF5F06FF01801484306EB80019F
:101B600008EB0110B0FBF5F000F0F006FFF796FB74
:101B700000EBC00101EB001061688900B0FBF1F0DF
:101B8000B0FBF5F006EB0016FFF788FB00EBC00199
:101B900001EB001061688900B0FBF1F7FFF77EFBF5
:101BA000D2E0914201D081423DD1FFF777FB00EBBB
:101BB000C00101EB001061684900B0FBF1F0B0FB1F
:101BC000F5F00601FFF76AFB00EBC00101EB001026
:101BD00061684900B0FBF1F7FFF760FB00EBC00163
:101BE00001EB001061684900B0FBF1F0B0FBF5F0CB
:101BF0006FF01801484307EB800108EBC100B0FB10
:101C0000F5F000F0F80006EB4006FFF747FB00EBAD
:101C1000C00101EB001061684900B0FBF1F7FFF76C
:101C20003DFB3CE055E0FFF721FB00EBC00101EB81
:101C3000001061684900B0FBF1F0B0FBF5F006015F
:101C4000FFF714FB00EBC00101EB001061684900D5
:101C5000B0FBF1F7FFF70AFB00EBC00101EB00104E
:101C600061684900B0FBF1F0B0FBF5F06FF01801CE
:101C7000484307EB800108EBC100B0FBF5F000F032
:101C8000F80006EB4006FFF7F1FA00EBC00101EBAC
:101C9000001061684900B0FBF1F7FFF7E7FA00EBCD
:101CA000C00101EB001061684900B0FBF1F0B0FB2E
:101CB000F5F06FF01801484307EB800108EBC10015
:101CC000B0FBF5F000F00700216830448860BDE803
:101CD000F081FFF7CBFA00EBC00101EB0010616867
:101CE0008900B0FBF1F6FFF7C1FA00EBC00101EB90
:101CF000001061688900B0FBF1F0B0FBF5F06FF007
:101D00001801484306EB800108EB0110B0FBF5F029
:101D100000F0F006FFF7AAFA00EBC00101EB00109B
:101D200061688900B0FBF1F0B0FBF5F006EB00163E
:101D3000FFF79CFA00EBC00101EB0010616889001D
:101D4000B0FBF1F7FFF792FA00EBC00101EB0010D6
:101D500061688900B0FBF1F0B0FBF5F06FF018019D
:101D6000484307EB800108EB0110B0FBF5F000F0F1
:101D70000F00A9E700140140001001402DE9F041D7
:101D8000984617460E460446069D1DE0681C1BD06B
:101D90002DB1FFF713F9A0EB0800A84214D9206871
:101DA000C16821F4D071C1602068416921F001014E
:101DB0004161202084F8390084F83A00002084F83A
:101DC00038000320BDE8F0812068006836EA000092
:101DD00004D00020B842D9D00020F3E70120F9E771
:101DE000FEE7000000B590F82F1085B0C9070DD0B0
:101DF000001D01F09DFB024607A1684600F03EF879
:101E0000694606A000F02AF805B000BD05B009A09B
:101E10005DF804EB00F022B8257300005374617480
:101E2000696320495020616464726573733A2025A8
:101E3000730A0000546865206E6574776F726B20BA
:101E40006361626C65206973206E6F7420636F6ECE
:101E50006E6563746564200A000000000FB4054BD2
:101E600010B503A9044A029800F02CF810BC5DF8E4
:101E700014FB0000CD2B0008400100200FB4084BDC
:101E800010B504A902AA039800F01CF8044602A9A0
:101E9000002000F048FA204610BC5DF814FB00005A
:101EA0002723000802E008C8121F08C1002AFAD13F
:101EB00070477047002001E001C1121F002AFBD1CA
:101EC000704700002DE9FF4F8DB00F4605460026F4
:101ED00006E025280BD0DDE90F1290476D1C761C1B
:101EE00028780028F5D111B03046BDE8F08F0024E5
:101EF000A246A1460122EC4900E0044315F8013F47
:101F0000203B02FA03F00842F7D128782A2810D0A3
:101F10006FF02F022878A0F13001092914D80AEBBC
:101F20008A0102EB410144F0020400EB010A6D1C3E
:101F3000F0E701CF5FEA000A03D544F40054CAF188
:101F4000000A44F002046D1C28782E2817D115F8D9
:101F5000010F44F004042A280ED06FF02F022878D5
:101F6000A0F1300109290AD809EB890102EB4101EE
:101F700000EB01096D1CF2E757F8049B6D1C2878F3
:101F80006C280FD006DC4C2817D068280DD06A28A2
:101F900014D104E0742810D07A280FD10DE044F455
:101FA00000140AE044F4801401E044F44014697819
:101FB000814202D104F580146D1C6D1C2A786E2AB2
:101FC0001FD00CDC632A31D004DC002A8BD0582AC5
:101FD00011D1A3E0642A68D0692A0CD165E0732A84
:101FE0002ED004DC6F2A73D0702A04D19BE0752AAE
:101FF0006FD0782A6ED01046DDE90F129047761C1C
:1020000050E1C4F30250022806D0032809D0042866
:1020100001CF09D0066045E101CFF117C0E90061A9
:1020200040E101CF06803DE106703BE117F8040B6B
:102030008DF8000000208DF80100EB46012003E040
:1020400057F804BB4FF0FF3061074FF0000102D496
:102050000DE008F10101884649450FDA8045F8DBBB
:102060001BF808100029F4D108E008F101018846A6
:102070008142FADB1BF808100029F6D1DDE90F23B5
:10208000AAEB08008146214600F036F9304400EB07
:10209000080604E0DDE90F121BF8010B9047B8F1C8
:1020A0000108F7D221464846F7E00A21C4F302535B
:1020B0004FF0000B0891022B04D001CFC117032B66
:1020C00009D00AE0FF1D27F00707F7E8020108E042
:1020D00032E01FE020E000B2C117042B01D140B272
:1020E000C117031E71F1000307DA4FF0000CD0EBAB
:1020F0000C006CEB01012D2302E0230504D52B23FA
:102100008DF82430012303E0E30701D02023F7E713
:10211000984658E00A2110E010210EE010204FF000
:10212000000B08900CE010214FF0000B44F0040469
:102130004FF00809089103E008214FF0000B0891C7
:10214000C4F30253022B04D001CF0021032B06D08D
:1021500006E0FF1D27F00707F7E8020103E080B261
:10216000042B00D1C0B24FF0000823072BD5702AF2
:1021700007D0DDF820C08CF0100C5CEA0B0C05D009
:102180000EE040238DF82430012308E050EA0103DB
:1021900006D030238DF824308DF825200223984670
:1021A000DDF820C08CF0080C5CEA0B0C0BD150EA77
:1021B000010301D1630706D530238DF824304FF099
:1021C0000108A9F10109582A04D038A20B9208AAE3
:1021D0000A920BE03AA2F9E75B46089AFEF726F866
:1021E0000B9B9B5C0A9A521E0A92137050EA0102E2
:1021F000F2D10A98ADEB000000F1200B600702D588
:1022000024F4803401E04FF00109D94502DDA9EB47
:102210000B0000E0002000EB0B0141440890AAEB0A
:10222000010AE00306D4DDE90F232146504600F001
:1022300063F806444FF0000908E009A911F8090005
:10224000DDE90F12904709F10109761CC145F4DB65
:10225000E0030CD5DDE90F232146504600F04CF891
:10226000064404E0DDE90F1230209047761C0899FF
:10227000481E08900029F5DC08E00A980A990078C1
:10228000491C0A91DDE90F129047761CBBF1000151
:10229000ABF1010BF1DC21465046DDE90F2300F0E4
:1022A00019F806446D1C1BE6092801003031323351
:1022B0003435363738396162636465660000000082
:1022C000303132333435363738394142434445466C
:1022D000000000002DE9F041044600251E46174687
:1022E000880404D405E039462020B0476D1C641EE4
:1022F000F9D52846BDE8F0812DE9F04104460025D6
:102300001E469046C80301D5302700E020278804E8
:1023100004D505E041463846B0476D1C641EF9D52A
:102320002846BDE8F0810A68531C0B6010707047A6
:1023300010B500F0A9FABDE81040002202494FF4A0
:102340007A7002F0EDB8000031230008C26812680C
:102350000A60C068016070472DE9F84F90468946D1
:10236000060053D0B8F80A002A284CD3D8F80450F5
:102370004FF4807A2C4634F80E0F504543D1207923
:10238000062840D1607904283DD1608808283AD1D8
:10239000D4F80E000090A169706820B1814202D18A
:1023A00001273B4601E00027022304F108026946A9
:1023B000304600F099FAE088504524D11FB302203E
:1023C00001F064FBE080D4F80E00A0617068C4F8EE
:1023D0000E00A068C4F81200A089E082A0682860FE
:1023E000A089A880D9F80010A160B9F80400A081E4
:1023F000D9F80010C5F80610B9F804006881B26970
:10240000414630469047404601F061FFBDE8F88FF5
:1024100070B50A4D0646002404EB440005EBC000ED
:10242000017D29B18068B04202D1204600F076F8E3
:10243000641CE4B20A2CEFD370BD000054010020EC
:102440002DE9FC5F0A27054600208B46DFF8C8907F
:102450003E4639463C4601908646009000EB400AD5
:1024600009EBCA030A291A7D0AD0B2B165B1D5F8C1
:1024700000C0D3F80480C44506D140B2BDE8FC9F3B
:10248000002AF3D141B208E0012A14D0022A04D371
:102490005A8A724501D346B29646401CC0B20A28F9
:1024A000DCD35FEA8B724FF0FF30E7D40A2913D0F8
:1024B00015DACCB221E059F83A20002A5A8A05D020
:1024C000019B9A42E9D344B20192E6E7009B9A420B
:1024D000E3D347B20092E0E75FEACB71CED00A2E99
:1024E00001DAF4B206E00A2F01DAFCB202E00A2CAB
:1024F000C4DAE4B2204600F011F82DB104EB440236
:1025000009EBC2002968416004EB440209EBC200F8
:102510000021418260B2B1E75401002070B50C4D3A
:1025200000EB4006002455F8360018B101F0CFFE4C
:1025300045F8364005EBC6000649047544828460C0
:102540004460D1F80620C2604989018270BD000054
:1025500054010020C86F00082DE9FC410E460446D6
:1025600015460E21304601F0F1FE18B16FF0010062
:10257000BDE8FC812146286800F004FD08B1324B1B
:1025800039E02868C0F303110E291FD0A1686368E1
:1025900000EA01020B409A4208D080B2A0F57E41C9
:1025A000A93903D0E06868B304F10C05274A28492B
:1025B000137803EB430001EBC000077D022F24D307
:1025C0002F684068874220D11A462DE001208DF8FF
:1025D000000000208DF801005E208DF80200687870
:1025E0006B4600F07F008DF80300A8788DF804009A
:1025F000E8788DF8050004F129023146204600F004
:1026000033F9B5E76FF00300B2E7002000EB4003B9
:1026100001EBC3031F7D022F0BD32F685B689F4222
:1026200007D1C0B2107002463146204600F012F8C1
:102630009EE7401C40B20A28E8DB32462946204685
:1026400000F036F894E70000C86F00080C00002086
:10265000540100202DE9F04106468846134802EB5C
:10266000420100EBC10404F10C05207D022813D1C6
:10267000608A0327B0F58E7F04D9211D304600F013
:10268000DDF807E0B0F5877F06D32A46211D3046E6
:1026900000F0DAF800B927752B4606F12902414609
:1026A0003046BDE8F04100F0DFB8000054010020E2
:1026B0002DE9F84F82462930009088460868144674
:1026C0004FF0FF36514600F05DFCD0B9D8F800005D
:1026D000C0F303110E2914D0B8F1000F11D080B14E
:1026E000524601214046FFF7ABFE07000BD4DFF84E
:1026F000A4B007EB47090BEBC905287D28B144B10D
:102700000EE06FF00E00BDE8F88F01202875C5F8C7
:1027100008A04146504600F091F80646002CF2D041
:10272000287DD84602280AD31B4805F10C03214610
:1027300007705046009A00F097F8064627E00128F7
:1027400025D12046017B01290ED0018900220320DA
:1027500001F062FC050018D0214601F037FD58B1A8
:10276000284601F0B4FD10E000680028EAD12546B3
:10277000204601F04DFE45B158F8390008B101F08E
:10278000A6FD48F83950002601E04FF0FF363046EC
:10279000B9E70000540100200C0000202DE9F05F93
:1027A0009046894682461F4600222A210320DDF8F2
:1027B0002CB001F031FC06003DD075680D9805F194
:1027C0000E0401F063F9E0803868A060B888A08149
:1027D000DBF80010C4F81210BBF80400E0820A987D
:1027E0000068C4F80E000C980068A0614FF4807077
:1027F00020800820608006202071042060714FF442
:10280000C160A881D8F800102960B8F80400A88039
:10281000D9F80010C5F80610B9F804006881DAF894
:1028200018205046314690470446304601F04FFD8F
:102830002046BDE8F09F4FF0FF30FAE7014A00F074
:1028400003B80000C86F00087FB5064D031D0124C2
:10285000CDE90035CDE9021425331946FFF79EFF77
:1028600004B070BDCE6F000830B44C680825A58157
:102870001D6825609B88A3801368C4F80630928881
:102880006281826930BC104770B5164D002400BFCC
:1028900004EB440005EBC002107DF0B1518A491CE5
:1028A00089B25182B1F5967F0AD2012806D0032859
:1028B0000AD004280AD001280BD00EE0052908D33D
:1028C0002046FFF72BFE08E0042000E002201075F0
:1028D00003E0111D9068FFF7B1FF641CE4B20A2CFD
:1028E000D6D370BD540100202DE9F0411F46164695
:1028F0000D00044632D0286878B3214600F042FB30
:1029000058BB2878C0F303100E2827D0224639463A
:102910002846FFF795FD00281DDB00EB400111481C
:10292000022300EBC102137594603368D360B3884F
:1029300013820023538250F831505DB140F831309A
:10294000334604F1290229462046FFF78DFF284629
:1029500001F0BDFC0020BDE8F081FFE76FF00E0044
:10296000F9E700005401002070B5044640890D4687
:102970000E283DD9606801788689CA0714D00129DC
:1029800005D006221C49FDF744FC48B10CE0417813
:1029900051B980785E2807D1607B40F0100002E0DA
:1029A000607B40F008006073082E03D0B6F5C16F5D
:1029B0001ED111E095F82F00000719D560890E2867
:1029C00016DB6FF00D01204601F0C0FC80B92946EE
:1029D000204600F09BFB09E095F82F00000707D583
:1029E000224605F129012846FFF7B6FC002070BDFC
:1029F000204601F06CFCF9E7C86F000810B57321A0
:102A000080F83010742180F8311004494161044984
:102A1000816100F003FF002010BD0000592500086F
:102A2000E139000870B5054600F07CFF040009D0CC
:102A30002A6929469047002804D02046BDE8704006
:102A400001F045BC70BD000010B5044690F82F00A1
:102A500088B0400720D514A0FFF700FA1C48059065
:102A60006FF07F4006901B48079007AB06AA05A9A8
:102A7000204601F071FA201D00F05AFD024616A111
:102A80006846FFF7FBF9694614A0FFF7E7F920460F
:102A900001F0B4FA08B010BD204601F073FA15A099
:102AA000FFF7DCF9F6E70000546865206E6574777F
:102AB0006F726B206361626C65206973206E6F7743
:102AC00020636F6E6E6563746564200A0000000009
:102AD000C0A801C8C0A80101257300005374617427
:102AE000696320495020616464726573733A2025DC
:102AF000730A0000546865206E6574776F726B20EE
:102B00006361626C65206973206E6F7420636F6E01
:102B10006E6563746564200A000000002DE9FC41C5
:102B2000002506460195009590F82F00400742D5F4
:102B3000254C606868B34FF4805200212046FEF7B0
:102B40001BF9FEF73BFA4FF47A7701906A460121B0
:102B50001D48FDF7C5FFFEF731FA0199401AB8424A
:102B600017D800988006F1D56A4610211648FDF75F
:102B7000B7FF0098410703D54FF40061E16000E022
:102B8000E560800701D5A5600DE04FF48040A060AE
:102B900009E0E068A168C00840EA510082B2002163
:102BA0000948FEF7E9F800210748FDF7D7FC064879
:102BB000FDF7D9FF02E00448FEF717F83046FFF7AB
:102BC00043FFBDE8FC8100003468002013B54FF6D8
:102BD000FF73012269460248FEF7E6FD00981CBD1E
:102BE0007C6800200A46032100F038B92DE9FE4F29
:102BF000044646488A46D0F8088098F8001009072D
:102C00008E0E6189042902D2218941A07AE062688E
:102C10001178527821B1082907D049A0FFF71EF991
:102C20002046BDE8FE4F01F052BB384F42691437D1
:102C3000C2F303110E2907D081460168104600F047
:102C4000A1F918B14BA023E055A021E05FA0FFF748
:102C500005F92089082801D261A019E02221204627
:102C600001F074FB28B320890022304481B2022095
:102C700001F0D2F905000AD0324641466868FDF7F6
:102C80009DFA7142284601F061FB48B903E05DA05E
:102C9000FFF7E4F8C4E72146284601F097FA18B197
:102CA000284601F014FBBBE7204601F010FB2C4640
:102CB00006E06FF02101204601F048FB0028AFD16B
:102CC00031462046656801F041FB0028A8D16068C4
:102CD0003968FF22C160D9F8101001610021297004
:102CE00069800272418101228DE806040A46FF23B1
:102CF0003946204600F0C2FA002891D000F0DCFEF0
:102D000001464AA0FFF7AAF88AE7000098080020C9
:102D100069636D705F696E7075743A2073686F7265
:102D2000742049434D5020282568752062797465C8
:102D300073292072656365697665640A0000000086
:102D400069636D705F696E7075743A2049434D50C8
:102D5000207479706520256420636F646520256484
:102D6000206E6F7420737570706F727465642E0AB4
:102D70000000000069636D705F696E7075743A20C1
:102D80004E6F74206563686F696E6720746F206290
:102D9000726F6164636173742070696E67730A0097
:102DA00069636D705F696E7075743A204E6F742040
:102DB0006563686F696E6720746F206D756C7469E8
:102DC000636173742070696E67730A0069636D7064
:102DD0005F696E7075743A2070696E670A00000052
:102DE00069636D705F696E7075743A20626164200A
:102DF00049434D50206563686F207265636569764D
:102E000065640A0069636D705F696E7075743A205D
:102E1000616C6C6F636174696E67206E657720709A
:102E2000627566206661696C65640A0069636D702D
:102E30005F696E7075743A2069705F6F7574707534
:102E4000745F69662072657475726E656420616E68
:102E5000206572726F723A2025730A002DE9FF47D0
:102E600091468846074600222421012001F0D4F82B
:102E7000060042D023A07C68FEF7F0FFE07B0090C4
:102E8000A37B627B217B26A0FEF7E8FF28A0FEF74C
:102E9000E5FFE07C0090A37C627C217C20A0FEF713
:102EA000DDFF25A0FEF7DAFF75681C2285F800809B
:102EB00085F801904FF00008A5F80480A5F8068079
:102EC000706879680830FDF779F9E068039003A825
:102ED00000F000FB60B1A5F802800122CDF800806F
:102EE000CDE90120FF2303AA0021304600F0C6F9F6
:102EF000304601F0ECF9BDE8FF8710A0FEF7AEFF09
:102F0000F9E7000069636D705F74696D655F6578EE
:102F10006365656465642066726F6D200000000063
:102F20002568752E2568752E2568752E256875000F
:102F300020746F20000000000A00000069636D70BB
:102F40005F74696D655F65786365656465643A2083
:102F50006661696C656420746F20616C6C6F63617D
:102F60007465207062756620666F722049434D500B
:102F7000207061636B65742E0A0000000A460B2105
:102F8000FFF76CBF421C12D088B191F82F20920736
:102F90000BD54B68834208D0896800EA01020B40D8
:102FA0009A4202D10143491C01D000207047012000
:102FB000704700002DE9F74F8AB004460B9814279C
:102FC0000025C68C60680690C08800F072FDC0F3D2
:102FD0000C0B00F40050089020891438143E1FFA9E
:102FE00080F8F01706EB5070C0F3CF0007960590FD
:102FF00078E00799884501DC012000E00020089A6C
:10300000CBF30C0111430491D8B1404680B2029039
:1030100000221421022000F0FFFF5FEA00096BD0BC
:103020001422D9F804000699FDF7C8F8D9F804006D
:1030300003906068384460606089C01B6081029EB4
:103040002CE041F4005004900598C000DEE765894B
:10305000B54200D9354605B3052000F0DFFE070074
:1030600047D06068CDE900053B460222294604208E
:1030700001F066F85FEA000A41D0204601F0C8F985
:103080002148C7E904045146484601F082F8701B04
:103090000604360C04D02468D9E72468002ED6D163
:1030A0002F46049800F0F2FC0399C880029814306F
:1030B00080B200F0EBFC0399488003980021418125
:1030C0000B9849460C9A43699847484601F0FFF827
:1030D00002980599A8EB00001FFA80F80BEB01009D
:1030E0001FFA80FBB8F1000F83D100200DB0BDE8BE
:1030F000F08F484601F0EBF84FF0FF30F6E7384626
:1031000000F058FAF5E70000053800082DE9F05FF7
:10311000456806460F4628780421B1EB101F03D0FE
:10312000304601F0D4F874E000F00F004FF6FF7164
:1031300001EA8009688800F0BCFC04463089A0429E
:1031400003D92146304601F039F971894945E7D361
:103150003089A042E4D347482969DFF81CB14161B6
:10316000E9684FF001083C468246016194F82F005F
:10317000C00709D0616839B1DAF81400884211D06B
:103180002146FFF7FFFE68B9B8F1000F04D04FF0F9
:103190000008DBF8004000E02468BC4200D124684D
:1031A000002CE3D1D0463946DAF81000FFF7EAFEEA
:1031B0000028B5D198F81000C0F303100E28AFD046
:1031C000002CADD0E88830F0C00005D0304600F0CB
:1031D000B9F806001DD07568C8F80850C8E900475E
:1031E000297830460907890EA8F80C10C9F10001AA
:1031F00001F0ACF8687A012818D0062811D01128FF
:103200000AD047462146D8F81400FFF7BBFE90B11C
:103210001FE00020BDE8F09F3946304603F026FE4F
:103220001AE03946304601F06BFE15E0394630466B
:10323000FFF7DCFC10E0387DC0F303100E2808D047
:103240004946304601F085F8022130467560FFF7A7
:10325000C9FC304601F03BF80021C8F80010C8F85E
:103260000410C8F80810A8F80C10C8F81010C8F816
:103270001410CEE79808002004010020FEB5DDE917
:103280000954089E1AB109B10F6807B9211D0096AB
:10329000CDE9015400F002F8FEBD00002DE9F84F21
:1032A0001F46DDE90BA8DDF828B016008946054663
:1032B0002DD0142101F04AF818B16FF00100BDE8DB
:1032C000F88F6C68277284F809A030682061452067
:1032D000207084F801B0288900F0D8FB174F608077
:1032E0004FF0000AA4F806A0388800F0CFFBA080B9
:1032F0003888401C3880B9F1000F05D0D9F800009B
:10330000E060A4F80AA006E00D480068F8E76868E5
:103310006E4600690090B8F8260040B129898142C4
:1033200005D9324641462846FFF744FEC7E7D8F89C
:1033300014304046324629469847C0E78C000020AA
:10334000C46F00082DE9F05F45688346287800F0D7
:103350000F0005287ED1E88800F0ABFBC0044FEADF
:103360001049688800F0A5FB297801F00F01494257
:1033700000EB81001FFA80F8584600F01EFF544E03
:103380000746308838440A2809D93946284600F0CB
:10339000D5F900285ED0308838440A285AD84FF032
:1033A000000A74680CE06069E968884207D1A06986
:1033B0002969884203D1A089A988884203D024685A
:1033C000002CF0D106E02CB1E88800F072FBC004BC
:1033D0001DD027E0042000F021FD04000AD1394669
:1033E000284600F0ABF9B8426DDB042000F016FD72
:1033F000040068D02021FCF7FAFE0320E077706813
:1034000020601422294604F10800746008E0E08975
:1034100000F04FFBC00405D01422294604F1080037
:10342000FCF7CCFE308838443080A879800606D47A
:10343000A07F40F00100A07709EB0800A083594667
:10344000204600F0BBF800283BD0A08B1430A083AE
:10345000606800E037E04568142204F108012F6835
:103460002846FCF7ABFEA08B00F010FB6880A5F8A7
:1034700006A0A5F80AA06FF01309D4F8048009E0AB
:10348000494638467D6800F061FF3946404600F005
:1034900080FE2F68002FF3D171688C4205D1002186
:1034A00005E00868A04202D001460029F9D1204673
:1034B00000F0FAF8404600F080FE3188081A3080AB
:1034C0004046BDE8F09F584600F001FF0020F8E7B5
:1034D000F800002070B50446134813E090F82F1050
:1034E000CA070FD04A070DD543685BB182682568CB
:1034F000134005EA02069E4214D0890702D4C1682F
:103500008D420FD000680028E8D10848006840B11B
:1035100090F82F10CA0704D0490702D54168002946
:1035200000D1002070BD000004010020080100202F
:103530001022014900F002B8440100202DE9FC43AB
:103540000023006889466C461E464FF00A0C01AD08
:103550000090002094F80080B8FBFCF70CFB178764
:10356000B8FBFCF884F8008030372F54401CC0B200
:10357000B8F1000FEED106E01F465B1C974209DA56
:103580002F5C01F8017B401EC0B2F5D218465B1CCF
:10359000904202DB0020BDE8FC832E20761CF6B2B0
:1035A000641C01F8010B042ED3D3002001F8010C98
:1035B0004846F0E70146052000F0FCBB2DE9F04746
:1035C000D1F8048007460D4600240126B8F8020011
:1035D00000F06FFA014698F8000000F00F0040423A
:1035E00001EB8009B8F8060000F063FAC004020C91
:1035F00068680021016002EB090182801FFA81F8EE
:10360000A0F806807B681DE05968B1F804C06245E7
:103610000DD2036044B1B4F806C0624535D3898841
:10362000884532D8256000E07D606BB115E02CD074
:10363000CB889A4229D31CB1E388634500D0002689
:103640000B680C46002BDFD134B12560E1888288FD
:10365000914202D0002600E07D60B97FC90712D0F8
:1036600066B1796849B14968898831B9016829B179
:103670004968C0888A88904203D000263046BDE859
:10368000F0870846F2E70020F9E7284600F095FDAC
:10369000014604480288511A0180284600F017FEAE
:1036A000F1E70000F8000020074B30B40A465C68E0
:1036B0000168844201D1596000E01160014630BCCC
:1036C000042000F077BB0000F80000202DE9F04155
:1036D00045680646884668680024818891B9006874
:1036E0007060142206F108016868FCF767FD01218B
:1036F0002846FFF743FC284600F05FFD04462846B5
:1037000000F0E5FD75680AE068682F4605683846F0
:1037100000F053FD204484B2384600F0D8FD002D5F
:10372000F2D141463046FFF7BFFF03480188091B2D
:1037300001802046BDE8F081F80000202DE9F04727
:103740001D4F8946064600240022134611461546A1
:10375000786822E0D0F814C0D6F80C80C4450BD1AC
:10376000D0F818C0D6F81080C44505D1B0F80CC008
:10377000B6F80480C44509D06D1C2AB190F81FC06A
:1037800092F81F80C44501D802461946D0F800C0FF
:10379000BCF1000F00D0034660460028DAD11AB110
:1037A0001046FFF793FF04444C4501DA012DCBDCB2
:1037B0002046BDE8F0870000F800002010B500F0BA
:1037C0000BF8BDE81040002202494FF47A7000F077
:1037D000A7BE0000BD37000870B509480025446841
:1037E0000BE0E07F20B1401EE0772546246804E02E
:1037F000204624682946FFF769FF002CF1D170BDEF
:10380000F800002010B50446406908B100F05FFDE3
:103810002046BDE81040FFF7CDBE00003EB504468F
:103820003D4D00203B4900902960012169602982BB
:10383000C8218DF804105B218DF8051076218DF8D4
:10384000061080218DF807100A218DF80810E2215A
:103850008DF8091001A9C5E90510E8614FF40000D1
:1038600028622846FDF704F828B994F82F0040F0A4
:10387000040084F82F000423284A29492648FCF72D
:103880003FFF274A04238032A2F580712248FCF7CB
:10389000FDFE062084F828006869007884F8290075
:1038A0006869407884F82A006869807884F82B0079
:1038B0006869C07884F82C006869007984F82D0064
:1038C0006869407984F82E0040F2DC5024F8260F15
:1038D000607A40F00A0060720F48FDF744F96A46CA
:1038E00011210D48FDF7FCF80098112140F003026A
:1038F00009480092FDF740FA6A4612210648FDF792
:10390000EFF80098122140F0200203480092FDF7E2
:1039100033FA3EBD0080024034680020645000202D
:10392000143800202DE9F84F0020044600902B4861
:10393000FCF723FF10B10020BDE8F88F2748818FE6
:10394000D0F840900904090C2DD00322042000F087
:1039500063FB009038B32148009D40F2F45BD0F83F
:1039600030806E8900270FE0A4F2F4525242FCF737
:1039700025FCD8F80C008046D0F808903F1BAAF22E
:10398000F456002407F2F457686806EB040ADA4597
:1039900009EB04013844E7D83246FCF70FFC2D68E8
:1039A0003444002DDDD10D480022016B05E00B6889
:1039B00043F000430B60C968521C836B9342F6D8F6
:1039C00000218163006800F580504269120602D52B
:1039D0008022426181600098AEE7000034680020D8
:1039E0002DE9F05F27480D46C66A0020834604464D
:1039F000D6F808A031E0306800280CDB6F894FF062
:103A0000000818E0A4F2F4525242FCF7D7FBF66823
:103A10003068002802DA6FF0070025E0D6F808A029
:103A2000A8EB040000F2F458ABEB0400A9F2F45741
:103A300000F2F45B002407EB040940F2F4518945DD
:103A400069680AEB04004144DCD83A46FCF7B6FB4F
:103A50000BEB07002D683C448346002DCBD101467B
:103A60000848FDF704F900200649096801F580516E
:103A70004A69920603D520224A6100224A60BDE8C5
:103A8000F09F00003468002000BA704740BA7047C9
:103A900010B500F0BBF800F097F900F04FFA03F012
:103AA000E3F901F02BFABDE8104000F07BBD00BA4D
:103AB000704740BA704700000249A1EB80000068DF
:103AC000704700001C000020FDF786FAFDF79BFF01
:103AD000FDF7C8FEFDF760FFFCF736FCFDF7F8FECA
:103AE000002211463D20FDF7DDFA3D20FDF7CEFA1C
:103AF00000F0E4FF2748FEF775F927A0FEF7AEF9BE
:103B0000DFF8A8802A4C2B4F40F6B836002500BFBE
:103B1000FDF738FF0120FCF715FD2088401C80B21E
:103B20002080B04200D92580FCF700FD10B3B8F822
:103B3000000068B19A2120A0FEF790F9B8F80020A3
:103B40002049386800F07EF9A8F800502580DFE7AA
:103B50002088B0F57A7FDBD1A22117A0FEF77EF98D
:103B600025806068FCF74EFB82B26168386800F01F
:103B700069F9CDE72088B042CAD1258012A0FEF7AE
:103B80006DF9386800F09CF912A0FEF767F900F0B3
:103B900095FFBDE7BC68002068656C6C6F20776F8F
:103BA000726C6420746573740D0A00003401002087
:103BB000140100203C0100206C696E65203D202529
:103BC000640D0A0054690020C1AACDF8CAA7B0DC70
:103BD0000D0A0000D6D8D0C2C1AACDF80D0A000047
:103BE000002810D008490A6890420CD34A689042D5
:103BF00009D2002200F8042C8A680838904200D2CA
:103C0000886000F035BC70476000002010B50A489D
:103C10000A4A20F003004FF4C863106000210380BB
:103C20004180017100F5C861012451600C710B8065
:103C30004B80906010BD0000470200206000002013
:103C4000F0B5002846D04FF6FC71C01C00EA010513
:103C50004FF4C86C0C2D01D20C2501E065453ED80F
:103C6000204CC5F5C866A3682268981A81B234E072
:103C7000501807797FBB07887F1A083FAF422BD3C4
:103C8000068805F1140E761A0127083E764514D3EE
:103C90000D440835AEB295194FF0000E85F804E0DA
:103CA000B0F800E0A5F800E0698006800771298877
:103CB000614503D0951C4E5300E00771984208D12E
:103CC000616801E01B8813441D790DB18B42F9D165
:103CD000A3600830F0BDFFE7515A8E42C8D80020DB
:103CE000F8E70000600000202DE9F0474FF6FC7275
:103CF000C91C11404FF4C8650C2901D20C2101E008
:103D0000A94212D82A4E3468A04210D37268904259
:103D10000DD2A0F10802131B30F808CC9BB2ACEB1B
:103D20000307083FBFB2B94203D94FF00000BDE816
:103D3000F087FCD0B1461E4EA4444FF0000A9CF818
:103D400004803668B8F1000F06F1020618D001F1C0
:103D5000140CBC45EBD8194408318FB2E119D9F8DD
:103D60000840A14201D2C9F8081081F804A01488C3
:103D70000C804B8017800988A942D8D08F53D6E792
:103D800019440831D9F80880BCF8007089B2E045C0
:103D900003D104EB0108C9F808800C4484F804A09E
:103DA0002780638011802288AA42C0D09153BEE749
:103DB00060000020092804D2024A52F82000FEF7D1
:103DC000C5BA70479000002030B50020401C80B27A
:103DD0000928FBD3054D002455F8240000F008F80D
:103DE000641CA4B2092CF7D330BD00009000002061
:103DF000C268002111608168C91C21F00301002202
:103E000007E0C368521C1B680B60C3681960038815
:103E1000194443889342F4DC70470000092801D319
:103E200000207047024951F8200000F003B800005C
:103E300090000020C1680868002801D002680A606C
:103E400070470000E0B515460E460746A4B10322B0
:103E50002946002000F0E0F8A06040B12A46314633
:103E600000F0DCFA2146384600F074FF02E007A0BB
:103E7000FDF7F4FF0020E0BD0BA0FDF7EFFF2146AA
:103E8000384600F0C5FE4FF0FF30E0BD616C6C6F4E
:103E900063617465202065732D3E705F74782066C1
:103EA00061696C65640A0000616C6C6F63617465C4
:103EB00020206573206661696C65640A000000005B
:103EC00010B50446002102F0B3FA0021204602F0AA
:103ED0001AFC00221146204601F03EFD2046BDE8B6
:103EE000104000F075BC00002DE9F041044606A822
:103EF0004FF0030C90E8E00000206060A060E060FC
:103F000084F82F0084F824C0C4E907050A4D2878F6
:103F100084F83200401C28702046276100F01CF80D
:103F20002046B04710B10020BDE8F08168682060ED
:103F300020466C60F8E70000000100207047C907C8
:103F400009D04168002906D090F82F10090702D542
:103F5000011DFEF773BC704770B50C46054611464F
:103F600000F048F81946284600F019F8214628467E
:103F7000BDE8704000F018B8014988607047000043
:103F80000001002090F82F10CA0707D021F001018E
:103F900080F82F10090701D5FEF73ABA704701B132
:103FA0000968C1607047000070B50C00054601D07B
:103FB000206801E00C4800686968884212D02146F8
:103FC000281D01F003FA2146281D02F0DBFF3CB159
:103FD000206868602846BDE870400121FFF7AFBF48
:103FE0000020F6E770BD0000C46F0008002800D074
:103FF000C161704701B109688160704790F82F1066
:10400000CA0708D141F0010180F82F10490702D5F5
:104010000321FFF794BF70472DE9F05F16460D4668
:1040200005285CD2DFE800F0030507090900362700
:1040300004E0222702E00E2700E000274FF00109EC
:104040004FF00008F6B3012E65D0022E63D0032E88
:1040500045D10820FFF7E2FEDFF8E0B0040018D0F9
:10406000E0191330267320F00300C4E90080FF1C20
:1040700027F00300C0F5147041462581A84200D9FD
:10408000284660814F46A4F80E90A2462D1A884615
:104090001DE08BF8009022E00820FFF7BFFEC8B1BA
:1040A000067380F80D80C0F80080A9B2CAF800003D
:1040B0004FF414720181914200D31146418100F105
:1040C000100200E00EE04260C7816D1A8246002DAA
:1040D000E2DC2CE08BF80070204600F0F8F80020BD
:1040E000BDE8F09F07F1130020F00301E81C20F069
:1040F0000300084480B2FFF7A3FD041EF0D0E019CE
:10410000133020F00300606025816581C4F80080D1
:1041100084F80C800BE00720FFF780FE041EDFD040
:10412000C4F8048025816581C4F800802673A4F852
:104130000E9084F80D802046D2E700000C0100208C
:1041400070B50528DDE9044511D2DFE800F003056C
:1041500007090900362004E0222002E00E2000E0DA
:104160000020C01C20F003004618AE4201D90020F8
:1041700070BD00251D6014B12044586000E05D60F2
:1041800002205873198159811A730120D881184669
:1041900070BD10B500280FD000290DD004E00389B0
:1041A0000C892344038110460268002AF7D1028952
:1041B0000B891A440281016010BD002102E0491CF4
:1041C0000068C9B20028FAD1084670472DE9F047C7
:1041D0004FF000070C4605003E466FF00E0932D046
:1041E0007CB32889218988422DD36FF0050A68891C
:1041F000C11B6089801B814201DB80B200E088B274
:10420000804660684246811968683844FBF7D6FFEB
:1042100007EB080087B206EB080086B26089B0425F
:1042200001D8246800266889B84202D12D68002789
:1042300045B15CB160892189884207D1206860B9A5
:1042400004E000E06CB14846BDE8F0873DB1688904
:104250002989884203D1286808B15046F4E7002C28
:10426000C5D10020F0E72DE9F047164689464FF00A
:104270000008002806D0B9F1000F02D0002704463C
:1042800020E00020BDE8F0872BB16089984202D879
:10429000181A83B215E06089C01A85B2B54200D9F8
:1042A000354660682A46C11809EB0700FBF786FF10
:1042B00008EB05001FFA80F8781987B2701B86B2E8
:1042C000002324680EB1002CDED14046DAE770B539
:1042D00000281BD00024C189491E0904090CC18192
:1042E00013D1427B017B0568920702D5016988479B
:1042F00007E003290BD001290CD002290AD0FFF7CF
:104300006FFC641CE4B22800E5D1204670BD014674
:10431000082001E001460720FFF74CFDF1E700000F
:1043200070B50848002505700748046806E0606F0E
:1043300018B102F084F9656770BDE468002CF6D10D
:1043400070BD00000C01002084000020002200F05D
:1043500003B80122AFF3008030B541B138B1002974
:1043600007DA4B429DB24389AB4225D302E00020DD
:1043700030BD8DB2047B436834B1032C04D0022CD1
:104380000AD0012C08D017E05A1A00F1100442603C
:10439000A24208D243600FE000290BDA4289AA4208
:1043A0000AD35A1A426042890A444281028911445E
:1043B0000181DCE7002AF4D1012030BD70B502890B
:1043C0008A4224D98A1A0D46044605E0281A85B285
:1043D00020891044208124686089A842F6D3207B7C
:1043E00068B96089A8420AD0607B800707D4A0889A
:1043F000001B284481B22046FFF776FC0446658105
:104400002581206808B1FFF762FF0020206070BDA1
:10441000002802D0C189491CC18170472DE9F041B3
:104420008846144600276FF00E0340B1B8F1000F24
:1044300005D00189A14204D21811BDE8F0811846C7
:10444000FBE705460FE068892646B04200D20646E3
:1044500008EB070132466868FBF7B0FEA01B84B288
:10446000B8192D6887B2002CEDD10020E5E70000D7
:1044700030B5134903880A681344941C98420DD040
:104480001D795DB94D68AB4208D08D689D4200D161
:1044900088601D8805801B88851A1D534388134436
:1044A00083420BD01D79002D08D18D68854200D143
:1044B0008B60018819800088991A015330BD000073
:1044C000600000202DE9F041124C206800281FD028
:1044D00000F024F86168104F451A387808B1FFF7EA
:1044E0001FFF2168002913D04868A84210D86268CD
:1044F0002D1A0244626008682060D1E9026080469B
:104500000620FFF757FC002EE7D04046B047E4E70F
:10451000BDE8F081100000200C010020FCF74EBD2A
:104520002DE9F041054616460F460620FFF776FCBA
:10453000040013D0FFF7F2FF19490246086800286B
:104540000ED04B68A2EB03034FF00002E66022603E
:1045500005EB0302C4E9012706D10C60BDE8F08138
:104560004FF000034A60EFE74268AA420FD9521B9E
:1045700042602060F1E74B68934207D94A6863685C
:10458000D21A4A60016821600460E7E70846616862
:1045900042688A1A626001680029F3D0EBE70000E4
:1045A0001000002010B54FF47A740022064920460E
:1045B000FFF7B6FF002205492046FFF7B1FFFFF7DE
:1045C000ADFF0349486010BDBD3700083123000826
:1045D000100000202DE9FC5F0446007E0A280DD063
:1045E0000025DFF8C080D4F850B0D4F828A0D4F863
:1045F0001090D4F88C602F4658B120E0294821460D
:104600001C3001F081F92146BDE8FC5F0120FFF775
:10461000D1BB608B98B1D8F81000A0420AD1C06815
:10462000C8F8100008E0C168A14202D1E168C16089
:1046300002E008460028F6D10020E06009E01948B1
:104640000D46678B2146183001F05EF9012188F88C
:104650000010206F08B101F0F2FFE06E08B101F028
:10466000EEFF606F08B101F0EAFF45B1A08B231D9A
:10467000CDE9007022465146584601F080FF2146A0
:104680000120FFF797FB002E09D002B04846B44640
:10469000BDE8F04F6FF00B015DF804EB6047BDE83B
:1046A000FC9F00006C0000200121FFF793BF000079
:1046B0002DE9F04105460120FFF7B0FB404E040014
:1046C00047D100221146F468F06906E0436AE31A14
:1046D000934201D31A460146C0680028F6D111B1B1
:1046E0000846FFF7E1FF0120FFF798FB040030D1F7
:1046F000092000F0DDFD0120FFF790FB040028D128
:10470000082000F0D5FD0120FFF788FB040020D130
:1047100029467F2D00D97F2100231A46D6F80CC0E8
:10472000B0690BE0447E8C4207D8476AACEB0707C0
:104730009F4202D33B4602462146C0680028F1D181
:1047400012B11046FFF7B0FF0120FFF767FB04002E
:1047500032D09821FBF74BFD65764FF48660A4F8C4
:1047600066000023A4F868304000E085A0856372ED
:10477000FF20A0724FF40670E0860620A4F84400E3
:10478000A4F84030A4F84200C01FA0860120A4F87D
:104790004C00143400F080FE6064E0636063A06449
:1047A000F0682061B0786073E3720648E0660648FE
:1047B000E06784F88230143C2046BDE8F0810000B8
:1047C0006C0000203764000800DD6D000161704757
:1047D000017E012903D0817F41F010018177012101
:1047E000AFF300802DE9FC470446007E4A4D4FF0B0
:1047F00000094FF0010899B3042801D007283FD1E0
:10480000A16F19B9A18DB1F5066F39D0A18B608B5D
:10481000CDE90001231D2246A16A206D01F0AFFE03
:10482000204601F050F8A869A04209D1C068A861EB
:1048300008E0C168A14202D1E168C16002E0084617
:104840000028F6D1C4F80C9085F80080207E04285A
:1048500007D032480068A0420BD102F0F9F80CE012
:104860000EE00A202076E869E060EC6102F092F840
:1048700003E021460120FFF79DFA0020BDE8FC87F8
:104880000527082841D2DFE800F0041B262F2F401F
:104890004036608B002680B12869A04209D1C068EB
:1048A000286108E0C168A14202D1E168C16002E06C
:1048B00008460028F6D1C4F80C902146012007E0F4
:1048C000154800262146143001F01EF8214602202A
:1048D000FFF770FA1EE0104800262146183001F05C
:1048E00013F885F80080E8E7204601F0EAFE0600AC
:1048F00008D1277606E0204601F0E3FE060001D14C
:104900000920207634B116B104E0002602E02046EA
:1049100000F006FE3046B1E76C000020F4000020F5
:104920002DE9F0479A4616460D4604006FF005073C
:104930006BD04FF43D7136A0FDF790FA207E10B198
:10494000381FBDE8F087002D5FD028686060A6831F
:10495000206838B9201DFEF7BDFD30B1001D04D020
:1049600000682060668B1EB106E06FF00300E8E788
:1049700000F064FD608330B300F08EFD4FF000085E
:10498000C4F828802065401EA0644FF40665E065E9
:10499000E585A585C4F83080A4F86050A810E086AD
:1049A000211D00F000FAE0864FF00109A4F84C90B8
:1049B000A4F84E5002212046C4F884A000F004FA66
:1049C000070003D021E06FF00100BAE70220134D89
:1049D000207686B12869A04209D1C068286108E024
:1049E000C168A14202D1E168C16002E00846002826
:1049F000F6D1C4F80C80A869E060AC6101F0CAFF90
:104A000085F80090204600F08BFD384699E70000BD
:104A10006C696E65203D2025640D0A006C00002045
:104A20002DE9F0470746DDF820809A4691460D466D
:104A30005FEAC87001D0042600E000260320FFF7DB
:104A4000EDF9040015D084F80C804FF00008C4E99B
:104A5000008529892846891B2181A4F80A80142110
:104A6000FFF774FC48B1204601F0DBFD0020BDE8F3
:104A7000F0872846FFF72BFCF8E760684068206164
:104A8000788BFFF703F821690880B88BFEF7FEFFEB
:104A9000216948805046FEF7F7FF21694860B00859
:104AA000000300F5A04040EA0900FEF7EFFF21698E
:104AB000888121692046A1F81280D8E710B586B018
:104AC00000F0B9FC0E4C0028A06017D00DA0FDF737
:104AD000C5F90F48059005A8FEF72AFD02460DA16D
:104AE0006846FDF7CBF969460BA0FDF7B7F9154B02
:104AF00040F61B4205A9A068FFF712FF06B010BDE3
:104B000034010020BFAACABCC1AACDF80D0A00001A
:104B1000C0A8019F2573000049502061646472653C
:104B200073732061737369676E65642062792061B5
:104B30002044484350207365727665723A2025738D
:104B40000D0A0000494B000870B50E4615004FF0E5
:104B5000000104D0304600F05BF8284670BD0C2000
:104B6000FFF76EF8040032D0012020701B48666009
:104B700042681BA12248FDF781F92148FBF742FB5F
:104B800081B203220020FFF747FAA0600028E4D09A
:104B90001B48FBF737FB82B21949A068FFF73EFCC0
:104BA00021463046FFF712FE1649304601F040FC20
:104BB0001549304601F0A7FD01221449304600F0A6
:104BC000CBFE2146304600F0C5F8002070BD0146FE
:104BD000304600F01DF84FF0FF3070BD340100206A
:104BE00073656E64696E672074637020636C6965B9
:104BF0006E74206D65737361676520256400000025
:104C0000F0680020714C0008934D0008414C0008EA
:104C100070B50C460546002101F00AFC002128462B
:104C200001F071FD00221146284600F095FE14B1F6
:104C30002046FEF7D5FF2846BDE87040FFF7C8BD07
:104C400010B50A4601000DD0886818B1104600F072
:104C500081F805E00878032802D11046FFF7D8FF55
:104C6000002010BD1046FFF71FFD6FF00B0010BDB8
:104C70002DE9F0471D4614008A46064606D0A5B128
:104C80001046FFF724FB2846BDE8F087032030706C
:104C9000B06828B13146504600F05CF80020F3E7D8
:104CA00031465046FFF7B4FFF8E73078012807D0C7
:104CB0002189504601F0D1FB2046FFF708FBEDE7C4
:104CC000DFF860802089A8F80000B0F5806F03D974
:104CD00015A0FDF7C3F8FEE7002715463846DFF8B4
:104CE000609007E069680A5C09F807207F1C401C97
:104CF000BFB280B269898142F4D8114911A0FDF791
:104D0000ADF82D680020002DF4D1D8F80410491C0E
:104D1000C8F804102189504601F09FFB2046FFF798
:104D2000D6FABDE7340100207265636569766520B7
:104D30006461746120746F6F206C6F6E670A00008D
:104D40005469002064617461202D2D2D2025730D80
:104D50000A00000070B50D46064611E001233046FA
:104D6000616801F097FE18B1401C00D1AC6070BDC5
:104D70002068A86008B1FFF74BFB2046FFF7A7FAB1
:104D8000AC68002CF3D06289B6F866008242E5D99F
:104D900070BD10B50A460146806810B11046FFF795
:104DA000D9FF002010BD10B504460846FEF792FB5F
:104DB00040B1B0F9260028B1283880B2844200D230
:104DC00020460446204610BDF8B504460027B0F83A
:104DD00068007E1E0D46092801D3E80706D0A80703
:104DE00000D50127F80706D0042105E0A07F40F098
:104DF0008000A07714E00021B4F8660080B10022A2
:104E00001046FFF709F90100F0D000972A46204626
:104E1000E36DFFF705FE0100E8D0E06E10B104E09D
:104E20003046F8BDE16604E010460268002AFBD176
:104E300001600020A4F86A00A80707D0E06D401CBC
:104E4000E065B4F86600401EA4F86600E80703D0E9
:104E5000A07F40F02000A0774868FFF7AEF934F853
:104E6000681F084420800020F8BD000070B5164D72
:104E7000A878401CA870AC6922E000BF94F821100B
:104E8000A87881421BD084F82100A07FC10709D0F7
:104E900040F00200A077204600F042FBA07F20F007
:104EA0000300A077E668A06F38B100202870204684
:104EB00000F00EFF28780028DDD1344600E0E468D9
:104EC000002CDBD170BD00006C0000200A4910B539
:104ED0000846CB688088421C92B213B14C88A0422D
:104EE00004D28B681433185C8A8010BD001BC0B2DA
:104EF0008A80185C10BD0000D800002070470000B8
:104F00002DE9FC5FCF4E05464068B06068891428E3
:104F100077D3CD4F39687869FEF734F8002870D11F
:104F2000387DC0F303100E286BD0B0688089FEF77F
:104F3000C0FD000B6FF0130101EB800294B274808E
:104F40004FF0000AC6F80CA06A89B2EB800F1AD2A3
:104F5000142ADDD32846FFF7F9F968897080844266
:104F600016D9404201B22846FFF7F0F92868416897
:104F7000F1607188641A614209B2FFF7E7F9288984
:104F8000001B288104E0800041422846FFF7DEF93B
:104F9000B0680088FEF78DFD0146B068018040884A
:104FA000FEF787FD0146B06841804068FEF77FFD4F
:104FB0000146B068416031618068FEF778FD0146C6
:104FC000B06881607161C089FEF773FD0146B06809
:104FD000C1818089FEF76DFD00F03F0030702989A6
:104FE000820700D001221144F180DFF86092002294
:104FF000D7F810B0D9F80030B1681C46D7F814E0E3
:1050000042E019E1B4F81CC0B1F80080C44539D1C0
:10501000B4F81AC0B1F80280C44533D1D4F8048082
:10502000D8452FD1D4F80080F0452BD132B1D4F837
:105030000CC0C2F80CC0E360C9F8004034B3DFF81C
:10504000109257460007C9F800A02B89A9F808302C
:10505000C9F80450C9F81010C6F818A086F801A0C5
:1050600003D5687B40F001006873A06FF0B3204661
:1050700000F02EFE0C3060D0A06FB8B3F08800288E
:105080005BD141E02246E468002CBBD17148D7E9EE
:105090000427006811E0838B0C88A3420CD1438B5A
:1050A0004C88A34208D14368934205D10368BB42B0
:1050B00002D101F089FCBFE0C0680028EBD1664C4A
:1050C00000222068034610E0B0F81AC0B1F8028050
:1050D000C44508D1D0F800C0BC450BD0002808D08A
:1050E000BCF1000F08D00246C06800E00CE00028C8
:1050F000EAD18EE000287DD01AB1C168D160C360CA
:10510000206000F0F3F897E035462046F46100F0A7
:1051100029FC0C3071D0687800070FD5D4F88C20AA
:105120001AB16FF00C0120691FE02146474800F0DA
:10513000EBFB21460120FEF73DFE5EE0B4F8642063
:1051400032B1E36F23B12146206998470C3054D027
:105150006878C0060BD5A07FC006E6D4D4F88C20B2
:10516000002AE2D06FF00D0120699047DDE7A869C1
:1051700008B3A17FC90605D5FFF7A9F82046FFF7B8
:1051800093FA3AE0D4F880C0BCF1000F07D0D4F80D
:1051900010800246002321464046E04705E00023F8
:1051A00002462146184601F046F910F10C0F24D0B2
:1051B00008B1A869A0676878800618D5A06F20B1EB
:1051C000417B41F02001417311E0A08DB0F5066FE5
:1051D00001D0401CA085D4F880C0BCF1000F06D0DF
:1051E00000231A4621462069E0470C3005D02046AE
:1051F000EF6100E00DE000F093F9F761B761D9F8D5
:1052000004004C46002802D0FFF761F86760BDE853
:10521000FC9F8889FEF74DFC40070DD4B0680A4B0F
:1052200001884088CDE90001F088316910330144DC
:105230001A1D706901F0A3F92846BDE8FC5FFFF76D
:1052400046B80000D8000020980800208400002004
:105250008037002088000020800000203EB50446F2
:10526000006D401EFEF710FC03460022114620464A
:1052700000F026FA050014D0201DFEF72BF998B196
:10528000002200920621CDE90110A37A221D2146B9
:105290002846FDF7F3FF04462846FFF718F8204696
:1052A0003EBD4FF0FF303EBD6FF00304F4E7000059
:1052B00030B40D4B044600210846DD689A6909E0C8
:1052C000137EA34205D1536AEB1A8B4201D31946D0
:1052D0001046D268002AF3D1002803D030BC002148
:1052E000FFF778B930BC70476C0000207CB5334EB6
:1052F0000546307841075FD4C1060DD5B068304B04
:1053000001884088CDE90001F18830691A1D014407
:10531000706901F034F94FE080074DD5687EFFF7E2
:10532000C7F9040040D0264810384169216000695F
:105330006060688B6083B0680088A083032020765B
:1053400030690146401CA062491E616520632869DE
:10535000206168696061287A00F00C0020721948A9
:105360000168E160046001F015FB17490120087035
:10537000204600F039FAB068211DC089A4F8600009
:10538000A4F86200A4F84E00E08EFFF70CFDE08662
:1053900012212046FFF718FD050008D00021204605
:1053A000FFF718F928467CBD4FF0FF307CBD204642
:1053B000BDE87C4000F0B4B800207CBDD8000020DF
:1053C000A8080020840000206C00002070B5104E5A
:1053D0000C460546B16900F01DF82846316900F019
:1053E00019F8002C12D0206800280FD006F1140004
:1053F000026809E0D16806D0106820B12B68984295
:1054000001D1206810600A46002AF3D170BD000067
:105410006C00002070B50546084609E001682A685E
:10542000914204D1C468FFF73FF9204600E0C0680C
:105430000028F3D170BD4020FFF73AB9F0B5144D04
:10544000144A00234FF6FF764FF440474FF4804E46
:105450009088411C9180B04200D1978094880020B0
:1054600055F8201009680AE0B1F81AC0A44505D122
:105470005B1C9BB27345EBD30020F0BDC9680029CB
:10548000F2D1401CC0B20428EAD3A0B2F0BD0000A3
:10549000187000086C0000200249D1E90202104493
:1054A000886070476C00002070B5054600690C46A6
:1054B0008089FEF7FEFA194EC00715D0204601F08C
:1054C000BEF8002427E08089FEF7F3FAC00707D072
:1054D0000120FEF7DBFA01462869828911438181A8
:1054E0002046246801F09DF8ACB120692289336917
:1054F000416811442A891A44511AE4D52889C218EE
:1055000020694068121A002A05DDC01A81B229817B
:105510006868FEF753FF2C6070BD0000D8000020C3
:105520002DE9F047044665480068A04202D10020FA
:10553000BDE8F087B4F86010B4F84C00814200D2A6
:1055400008468146A07FE56E80070FD54DB12869DA
:105550004068FEF7ACFAA16C401A2989014449451C
:1055600004D92046BDE8F04701F072B8266F4FF02D
:10557000000A0EB98DE0064630680028FBD188E0AD
:1055800028698089FEF795FA206FA8B1A07F10F0F6
:10559000440F11D1E16E29B10A686AB90989E28E16
:1055A000914209D2B4F8661031B1B4F868100929F3
:1055B00002D210F0A00F78D0207E022806D0102052
:1055C000FEF764FA29698A8910438881A5F80AA040
:1055D0002146284600F0AAF820B1A17F41F08001C1
:1055E000A177A5E72868E066207E022803D0A07F87
:1055F00020F00300A07728694068FEF758FA0746B4
:1056000028698089FEF755FA800700D00120298992
:1056100038440844216D091A00D52065286980891D
:10562000FEF747FA800700D001202989C8422CD014
:10563000C5F800A0206F68B128694068FEF737FA06
:10564000074630694068FEF732FA381A1AD504F175
:10565000700003E0256716E0D8F800008046006877
:1056600050B100694068FEF722FA07462869406891
:10567000FEF71DFA381AEFD4D8F800002860C8F8F1
:10568000005005E035602E4602E0284600F0C9FFD4
:10569000E56E55B128694068FEF709FAA16C411A18
:1056A0002889084448457FF66BAFE06E08B9A4F836
:1056B0006AA0A07F20F08000A07738E7F4000020E7
:1056C0002DE9F041054688180F46143081B29846FE
:1056D00000220120FEF7A0FC060023D0688B74682E
:1056E000FEF7D4F92080A88BFEF7D0F96080C4F8CB
:1056F0000480A86AFEF7C8F9A060B808000300F5A6
:10570000A04080B240F01000FEF7C0F9A081E88D03
:10571000FEF7BCF9E081002020826082E98DA86A52
:10572000084428633046BDE8F0810000FEB5054618
:105730000C46886AFEF7A8F929698860E08DFEF7B3
:10574000A5F92969C881E18DA06A084420632E6902
:10575000287B1436C00709D0211D4FF40670FFF7CF
:1057600022FB40F00170FEF78FF93060B4F934008D
:105770000027401C00D1A786201DFDF7ABFE0600C8
:105780006FF0030109D00CB1206818B9301D04D0A6
:1057900000682060A06B10B109E00846FEBD11480A
:1057A0000068A06328694068FEF781F9E0636968D2
:1057B000288A8A88801A4A89121A4A8169680A895D
:1057C000101A088169682869221D48602869062125
:1057D0000782607A8DE84300A37A21466868FDF766
:1057E0004DFDFEBD780000202DE9F041214D8046A1
:1057F000A8688089FEF75DF90521B1EB103F22D240
:10580000A8688089FEF755F96FF0040101EB1030AC
:10581000090C01EA80060020A8804FF406740FE00E
:10582000FFF754FB00280ED0012809D002280CD025
:10583000FFF74CFB022806D3A9880844801EA880E5
:10584000A888B042ECD3BDE8F081FFF73FFB042805
:10585000F9D1A888801CB042F5D8FFF737FB0702C2
:10586000FFF734FB3843A04200D800B92046A8F81F
:105870003600E5E7D80000202DE9F0411D46DDE9BE
:105880000637089E0C46914211D2BF0707D49F7F6E
:105890007F060CD41EB1DE6E0EB91B6F3BB104F255
:1058A0001B2121F00301914200D80A4691B2002247
:1058B000FEF7B2FB002804D04189091B298004812E
:1058C0004481BDE8F08170B50446007E00281AD0FE
:1058D0000A2818D0012816D0A06F002510B1FEF7B5
:1058E000F6FCA567606F00F0AAFE4FF0FF30656719
:1058F000A086E06E00F0A3FE206F00F0A0FEE5663B
:105900002567A4F86A5070BD70B50C460146006862
:10591000A04209D1C068086008E0C168A14202D174
:10592000E168C16002E008460028F6D10025204663
:10593000E560FFF7C8FF207E0A280AD0012808D0BA
:10594000A07FC10705D040F00200A0772046FFF7F6
:10595000E7FD2576658370BDC0F8881080F82020AB
:10596000704700002DE9FF5FD34D044628784107BA
:105970001DD5207E022815D0A06A29690A1A15D4DF
:10598000A28D1044081A002810DC687840F0080046
:105990006870A07F20F00100A0776FF00C0004B0C9
:1059A000BDE8F09F206D69698842EED081E18007F3
:1059B00009D5207E022806D0032804D0A07F40F01D
:1059C0000200A07775E1A07FC00602D4BB48006842
:1059D0006062002084F896002046FFF705FFB84972
:1059E000227E01F110001431CDE90210DFF8D492CB
:1059F000B54FB64E921E4FF001084FF0040B4FF01A
:105A00000A0A082AD2D2DFE802F00471D1D5F3D114
:105A1000F2F12878C106C9D580075BD5206F0069EF
:105A20004068FEF744F86A69401C90424FD134F850
:105A3000660F401C24F83E0928690146401C20607E
:105A40002262A060A868491EC08920876087E16241
:105A500004F810BC34F80E0FA4F13201363CFFF705
:105A6000A2F9E086B4F86010A4F84E1041F21C11BF
:105A7000B1EB400F01D2420000E00A46B2EB800FCA
:105A800001D9810003E0B1EB400F00D2410024F8BE
:105A90004C1FA08B401EA083606A0168616200F009
:105AA000C0FD606A4C3C70B10020A08684F84600BE
:105AB000D4F88430002B81D00022214620699847F9
:105AC0000C302DD07AE74FF0FF30A086F0E7287831
:105AD000C006A0D5A86801884088CDE90001E98802
